{
  "contractName": "TaskBit",
  "abi": [
    {
      "inputs": [],
      "stateMutability": "nonpayable",
      "type": "constructor"
    },
    {
      "anonymous": false,
      "inputs": [
        {
          "indexed": false,
          "internalType": "uint256",
          "name": "id",
          "type": "uint256"
        },
        {
          "indexed": false,
          "internalType": "string",
          "name": "name",
          "type": "string"
        },
        {
          "indexed": false,
          "internalType": "bool",
          "name": "complete",
          "type": "bool"
        }
      ],
      "name": "TodoAdded",
      "type": "event"
    },
    {
      "anonymous": false,
      "inputs": [
        {
          "indexed": false,
          "internalType": "uint256",
          "name": "id",
          "type": "uint256"
        }
      ],
      "name": "TodoDeleted",
      "type": "event"
    },
    {
      "anonymous": false,
      "inputs": [
        {
          "indexed": false,
          "internalType": "uint256",
          "name": "id",
          "type": "uint256"
        },
        {
          "indexed": false,
          "internalType": "bool",
          "name": "complete",
          "type": "bool"
        }
      ],
      "name": "TodoToggled",
      "type": "event"
    },
    {
      "inputs": [],
      "name": "todoCount",
      "outputs": [
        {
          "internalType": "uint256",
          "name": "",
          "type": "uint256"
        }
      ],
      "stateMutability": "view",
      "type": "function",
      "constant": true
    },
    {
      "inputs": [
        {
          "internalType": "uint256",
          "name": "",
          "type": "uint256"
        }
      ],
      "name": "todos",
      "outputs": [
        {
          "internalType": "uint256",
          "name": "id",
          "type": "uint256"
        },
        {
          "internalType": "string",
          "name": "name",
          "type": "string"
        },
        {
          "internalType": "bool",
          "name": "complete",
          "type": "bool"
        }
      ],
      "stateMutability": "view",
      "type": "function",
      "constant": true
    },
    {
      "inputs": [
        {
          "internalType": "string",
          "name": "_name",
          "type": "string"
        }
      ],
      "name": "addTodo",
      "outputs": [],
      "stateMutability": "nonpayable",
      "type": "function"
    },
    {
      "inputs": [
        {
          "internalType": "uint256",
          "name": "_id",
          "type": "uint256"
        }
      ],
      "name": "toggleComplete",
      "outputs": [],
      "stateMutability": "nonpayable",
      "type": "function"
    },
    {
      "inputs": [
        {
          "internalType": "uint256",
          "name": "_id",
          "type": "uint256"
        }
      ],
      "name": "deleteTodo",
      "outputs": [],
      "stateMutability": "nonpayable",
      "type": "function"
    },
    {
      "inputs": [],
      "name": "getTodoCount",
      "outputs": [
        {
          "internalType": "uint256",
          "name": "",
          "type": "uint256"
        }
      ],
      "stateMutability": "view",
      "type": "function",
      "constant": true
    }
  ],
  "bytecode": "0x60806040523480156200001157600080fd5b506200003c6040518060600160405280602a8152602001620010f4602a91396200004260201b60201c565b620005f6565b60016000815480929190620000579062000151565b919050555060405180606001604052806001548152602001828152602001600015158152506000806001548152602001908152602001600020600082015181600001556020820151816001019081620000b191906200040e565b5060408201518160020160006101000a81548160ff0219169083151502179055509050507f1eea806ee4816ea054c4e49a7846de9d47bd348046dfaa28281c809dd10e269c6001548260006040516200010d93929190620005b2565b60405180910390a150565b7f4e487b7100000000000000000000000000000000000000000000000000000000600052601160045260246000fd5b6000819050919050565b60006200015e8262000147565b91507fffffffffffffffffffffffffffffffffffffffffffffffffffffffffffffffff820362000193576200019262000118565b5b600182019050919050565b600081519050919050565b7f4e487b7100000000000000000000000000000000000000000000000000000000600052604160045260246000fd5b7f4e487b7100000000000000000000000000000000000000000000000000000000600052602260045260246000fd5b600060028204905060018216806200022057607f821691505b602082108103620002365762000235620001d8565b5b50919050565b60008190508160005260206000209050919050565b60006020601f8301049050919050565b600082821b905092915050565b600060088302620002a07fffffffffffffffffffffffffffffffffffffffffffffffffffffffffffffffff8262000261565b620002ac868362000261565b95508019841693508086168417925050509392505050565b6000819050919050565b6000620002ef620002e9620002e38462000147565b620002c4565b62000147565b9050919050565b6000819050919050565b6200030b83620002ce565b620003236200031a82620002f6565b8484546200026e565b825550505050565b600090565b6200033a6200032b565b6200034781848462000300565b505050565b5b818110156200036f576200036360008262000330565b6001810190506200034d565b5050565b601f821115620003be5762000388816200023c565b620003938462000251565b81016020851015620003a3578190505b620003bb620003b28562000251565b8301826200034c565b50505b505050565b600082821c905092915050565b6000620003e360001984600802620003c3565b1980831691505092915050565b6000620003fe8383620003d0565b9150826002028217905092915050565b62000419826200019e565b67ffffffffffffffff811115620004355762000434620001a9565b5b62000441825462000207565b6200044e82828562000373565b600060209050601f83116001811462000486576000841562000471578287015190505b6200047d8582620003f0565b865550620004ed565b601f19841662000496866200023c565b60005b82811015620004c05784890151825560018201915060208501945060208101905062000499565b86831015620004e05784890151620004dc601f891682620003d0565b8355505b6001600288020188555050505b505050505050565b620005008162000147565b82525050565b600082825260208201905092915050565b60005b83811015620005375780820151818401526020810190506200051a565b60008484015250505050565b6000601f19601f8301169050919050565b600062000561826200019e565b6200056d818562000506565b93506200057f81856020860162000517565b6200058a8162000543565b840191505092915050565b60008115159050919050565b620005ac8162000595565b82525050565b6000606082019050620005c96000830186620004f5565b8181036020830152620005dd818562000554565b9050620005ee6040830184620005a1565b949350505050565b610aee80620006066000396000f3fe608060405234801561001057600080fd5b50600436106100625760003560e01c80630951e5bd14610067578063104a7cd8146100835780636e3c6738146100a157806395ffebf5146100bd578063bc8bc2b4146100d9578063fe0dee171461010b575b600080fd5b610081600480360381019061007c919061047c565b610129565b005b61008b6101bb565b60405161009891906104b8565b60405180910390f35b6100bb60048036038101906100b6919061047c565b6101c5565b005b6100d760048036038101906100d29190610619565b610240565b005b6100f360048036038101906100ee919061047c565b610310565b604051610102939291906106fc565b60405180910390f35b6101136103cf565b60405161012091906104b8565b60405180910390f35b600080600083815260200190815260200160002090508060020160009054906101000a900460ff16158160020160006101000a81548160ff0219169083151502179055507fb50a16255ec610e07f1e0b3a7b9aa1d91e047f81010699695a0cbea58f5d2ba0828260020160009054906101000a900460ff166040516101af92919061073a565b60405180910390a15050565b6000600154905090565b6000808281526020019081526020016000206000808201600090556001820160006101f091906103d5565b6002820160006101000a81549060ff021916905550507f1072e4eeea43a52d09f5b6dfc870a079948f706133840ce9239aebc57fabb65f8160405161023591906104b8565b60405180910390a150565b6001600081548092919061025390610792565b9190505550604051806060016040528060015481526020018281526020016000151581525060008060015481526020019081526020016000206000820151816000015560208201518160010190816102ab91906109e6565b5060408201518160020160006101000a81548160ff0219169083151502179055509050507f1eea806ee4816ea054c4e49a7846de9d47bd348046dfaa28281c809dd10e269c600154826000604051610305939291906106fc565b60405180910390a150565b600060205280600052604060002060009150905080600001549080600101805461033990610809565b80601f016020809104026020016040519081016040528092919081815260200182805461036590610809565b80156103b25780601f10610387576101008083540402835291602001916103b2565b820191906000526020600020905b81548152906001019060200180831161039557829003601f168201915b5050505050908060020160009054906101000a900460ff16905083565b60015481565b5080546103e190610809565b6000825580601f106103f35750610412565b601f0160209004906000526020600020908101906104119190610415565b5b50565b5b8082111561042e576000816000905550600101610416565b5090565b6000604051905090565b600080fd5b600080fd5b6000819050919050565b61045981610446565b811461046457600080fd5b50565b60008135905061047681610450565b92915050565b6000602082840312156104925761049161043c565b5b60006104a084828501610467565b91505092915050565b6104b281610446565b82525050565b60006020820190506104cd60008301846104a9565b92915050565b600080fd5b600080fd5b6000601f19601f8301169050919050565b7f4e487b7100000000000000000000000000000000000000000000000000000000600052604160045260246000fd5b610526826104dd565b810181811067ffffffffffffffff82111715610545576105446104ee565b5b80604052505050565b6000610558610432565b9050610564828261051d565b919050565b600067ffffffffffffffff821115610584576105836104ee565b5b61058d826104dd565b9050602081019050919050565b82818337600083830152505050565b60006105bc6105b784610569565b61054e565b9050828152602081018484840111156105d8576105d76104d8565b5b6105e384828561059a565b509392505050565b600082601f830112610600576105ff6104d3565b5b81356106108482602086016105a9565b91505092915050565b60006020828403121561062f5761062e61043c565b5b600082013567ffffffffffffffff81111561064d5761064c610441565b5b610659848285016105eb565b91505092915050565b600081519050919050565b600082825260208201905092915050565b60005b8381101561069c578082015181840152602081019050610681565b60008484015250505050565b60006106b382610662565b6106bd818561066d565b93506106cd81856020860161067e565b6106d6816104dd565b840191505092915050565b60008115159050919050565b6106f6816106e1565b82525050565b600060608201905061071160008301866104a9565b818103602083015261072381856106a8565b905061073260408301846106ed565b949350505050565b600060408201905061074f60008301856104a9565b61075c60208301846106ed565b9392505050565b7f4e487b7100000000000000000000000000000000000000000000000000000000600052601160045260246000fd5b600061079d82610446565b91507fffffffffffffffffffffffffffffffffffffffffffffffffffffffffffffffff82036107cf576107ce610763565b5b600182019050919050565b7f4e487b7100000000000000000000000000000000000000000000000000000000600052602260045260246000fd5b6000600282049050600182168061082157607f821691505b602082108103610834576108336107da565b5b50919050565b60008190508160005260206000209050919050565b60006020601f8301049050919050565b600082821b905092915050565b60006008830261089c7fffffffffffffffffffffffffffffffffffffffffffffffffffffffffffffffff8261085f565b6108a6868361085f565b95508019841693508086168417925050509392505050565b6000819050919050565b60006108e36108de6108d984610446565b6108be565b610446565b9050919050565b6000819050919050565b6108fd836108c8565b610911610909826108ea565b84845461086c565b825550505050565b600090565b610926610919565b6109318184846108f4565b505050565b5b818110156109555761094a60008261091e565b600181019050610937565b5050565b601f82111561099a5761096b8161083a565b6109748461084f565b81016020851015610983578190505b61099761098f8561084f565b830182610936565b50505b505050565b600082821c905092915050565b60006109bd6000198460080261099f565b1980831691505092915050565b60006109d683836109ac565b9150826002028217905092915050565b6109ef82610662565b67ffffffffffffffff811115610a0857610a076104ee565b5b610a128254610809565b610a1d828285610959565b600060209050601f831160018114610a505760008415610a3e578287015190505b610a4885826109ca565b865550610ab0565b601f198416610a5e8661083a565b60005b82811015610a8657848901518255600182019150602085019450602081019050610a61565b86831015610aa35784890151610a9f601f8916826109ac565b8355505b6001600288020188555050505b50505050505056fea26469706673582212201f52fc696afe8c4ec178d156e30de48d4998a02d2f81c3a2b868cd5da34686f864736f6c634300081100334869212057656c636f6d6520746f205461736b4269742e20446576656c6f7065642062792053646d7266",
  "immutableReferences": {},
  "source": "// SPDX-License-Identifier: MIT\npragma solidity ^0.8.0;\n\ncontract TaskBit {\n    struct Todo {\n        uint256 id;\n        string name;\n        bool complete;\n    }\n\n    constructor() {\n        addTodo(\"Hi! Welcome to TaskBit. Developed by Sdmrf\");\n    }\n\n    mapping(uint256 => Todo) public todos;\n    uint256 public todoCount;\n\n    event TodoAdded(uint256 id, string name, bool complete);\n    event TodoToggled(uint256 id, bool complete);\n    event TodoDeleted(uint256 id);\n\n    function addTodo(string memory _name) public {\n        todoCount++;\n        todos[todoCount] = Todo(todoCount, _name, false);\n        emit TodoAdded(todoCount, _name, false);\n    }\n\n    function toggleComplete(uint256 _id) public {\n        Todo storage todo = todos[_id];\n        todo.complete = !todo.complete;\n        emit TodoToggled(_id, todo.complete);\n    }\n\n    function deleteTodo(uint256 _id) public {\n        delete todos[_id];\n        emit TodoDeleted(_id);\n    }\n\n    function getTodoCount() public view returns (uint256) {\n        return todoCount;\n    }\n}\n",
  "sourcePath": "F:\\Prj\\TaskBit\\smart_contracts\\contracts\\TaskBit.sol",
  "compiler": {
    "name": "solc",
    "version": "0.8.17+commit.8df45f5f.Emscripten.clang"
  },
  "schemaVersion": "3.4.15",
  "updatedAt": "2023-08-25T09:32:02.166Z",
  "networkType": "ethereum",
  "devdoc": {
    "kind": "dev",
    "methods": {},
    "version": 1
  },
  "userdoc": {
    "kind": "user",
    "methods": {},
    "version": 1
  }
}